{
  "abi": [
    {
      "inputs": [
        {
          "internalType": "uint256[2]",
          "name": "",
          "type": "uint256[2]"
        }
      ],
      "name": "poseidon",
      "outputs": [
        {
          "internalType": "uint256",
          "name": "",
          "type": "uint256"
        }
      ],
      "stateMutability": "pure",
      "type": "function"
    }
  ],
  "bytecode": {
    "object": "0x61012361003a600b82828239805160001a60731461002d57634e487b7160e01b600052600060045260246000fd5b30600052607381538281f3fe730000000000000000000000000000000000000000301460806040526004361060335760003560e01c806329a5f2f6146038575b600080fd5b60496043366004605b565b50600090565b60405190815260200160405180910390f35b600060408284031215606b578081fd5b82601f8301126078578081fd5b6040516040810181811067ffffffffffffffff82111715609857609860d7565b806040525080838560408601111560ad578384fd5b835b600281101560cc57813583526020928301929091019060010160af565b509195945050505050565b634e487b7160e01b600052604160045260246000fdfea264697066735822122008b05e188b8e1d64ad77ec86436a5dee3a978ff1dda12efc7f21ea435eb09a2764736f6c63430008040033",
    "linkReferences": {}
  },
  "methodIdentifiers": {
    "poseidon(uint256[2])": "29a5f2f6"
  },
  "id": 26
}