{
  "abi": [
    {
      "inputs": [
        {
          "internalType": "uint256",
          "name": "merkleTreeRoot",
          "type": "uint256"
        },
        {
          "internalType": "uint256",
          "name": "nullifierHash",
          "type": "uint256"
        },
        {
          "internalType": "uint256",
          "name": "signal",
          "type": "uint256"
        },
        {
          "internalType": "uint256",
          "name": "externalNullifier",
          "type": "uint256"
        },
        {
          "internalType": "uint256[8]",
          "name": "proof",
          "type": "uint256[8]"
        },
        {
          "internalType": "uint256",
          "name": "merkleTreeDepth",
          "type": "uint256"
        }
      ],
      "name": "verifyProof",
      "outputs": [],
      "stateMutability": "view",
      "type": "function"
    }
  ],
  "bytecode": {
    "object": "0x7f1da3fc88726dcb210b80123bb09b40a86a57eb1cec7f3bfc89f91fe20622d8546103809081527f23e9c269ed42423dbc44ce369cb78b342abe93731dc033216dadcb06c724aef06103a0526102a09081527f1a0c25b74f55683ebd0f8be53e188563362403cde2dad828ed917a8497ec367e6103c09081527f22af2404c15a320d0d67ee7c997eb497cea0208f443a620b9921f4a19402cfbe6103e0526102c0527f0457d05481ef2e919c3babe640b224438ac736c190b616070505bc66eb0a33486104009081527f04b9e760240ab0439ff305c89eede1c06e7e4a3a250d3fce09eaa12e43c2a610610420526102e0527f2b4399f1079da135eff8211a2684b3fc5bbd79204198a7a537ed0c20a58c3e166104409081527f19bbb4d125a0c826783c15728d6cf28f267ffbf330c197d39bd6c664b9ba283661046052610300527f0bc177b0557e29966e89a33ca900b78647df9e344b65a6a12055eaef2b6753616104809081527f012aefa5250fc5e72896094908c0f111ece72eda1b36ddbc8185fa1c2eaa63106104a052610320527f20ddcfb90110e0e1ea7af6934ee1c67408af27964f44780c982426a9d988856b6104c09081527f0711dfbe9c6fab32ebbba6a258c2e97b91becc667aac1a357cb9a275264fe0f86104e052610340527f0f2c85fbd7696d73949bc294dd362953ff7eccf67a075b84193d082839c3614b6105009081527f21384f8b567278eaff9c8240269e5f739e530540be8312ec617183c572ab7e91610520526103605260809081527f228dd06c5de709e7b53f38a850876a16f1b1437acd5f2dfda9ce83fb59189be36106209081527f1e0b7dd795bbd17d04ca4b8aadd5a4a86f146e9f16ddff7519a72fea86796558610640526105409081527f1958ea13532b11ab4e211c7aa631c5eb6ed2a34d97fdc39fc39cd73bd35f11a56106609081527f23621187ade6b9c56f2962955e72b4843b51481cbdec3cfb5ab4b948c56fd4aa61068052610560527f2754771b51f24b62a15d2c53a6a1cc408fcc7a623b3e7f9823d52d629f5a765e6106a09081527f0917ae814c9db420f2ca2c678dcdc58adbd41c938041719c1b50c64ec72c8b106106c052610580527f0758371f3dff3ee4c7c68d8c36f2e04254b9a4f7446521c75a30bdee9dc6fd736106e09081527ed7a7adc8c0c2a3fb09602aa14d3fa1764d15bdb150fd0f03ee69b3b60cb61c610700526105a0527f1367f89c851a9003e69384b623a614d3afa8d2fc51f5cb5abafc67e442baa9606107209081527f1a5c8221479bd8a8d50a74dd46d9e6f6cbe2cb6768a2429223f747a2f00685b6610740526105c0527f2240e05d565c404d5abb2f425a8fb849793bf671dae88e4f2567a617119bbe8d6107609081527f0df676ebd848824af90c8f9bae101c3e0c687ee8facb7f2279f506a5881d929c610780526105e0527f07b289755dcdc3a38163bce0f2b12f0e3c046735d27a534c9941cf6683e7db156107a09081527f2c69a3fee54303f17d8994afdac6e460545928a676307d5124c489b516e518dc6107c0526106005260a0527f1461627fb9791e5a96fce79d89fca07b82d7556c84a3d4414367740957c7da446108c09081527f2b97d05ca1d20d9abdec2e593937665b71c126735a9b7e601940c3f2758bda2b6108e0526107e09081527f24f5d230612998286ea5e1f999d5bc8c4a635ee9864099913b6657633c7c4b446109009081527f28491d3fa0c8200cd31c9e3be4e423939a16a865d455bc00e411cff8787f753961092052610800527f0a5f594ba7d550aca92b125cbc6c6b564139e3fd5c5937f3bd5220df88554a0f6109409081527f145a4c9d47805092bcebcd7e8c39b0f32b10f534475fd3a448cd6177f56de78461096052610820527f23b4e079081aa0ab98aaf8a230318cf6e9c97bba977f6b3065a58a82483f66306109809081527f2cc2af3f384010f2ac7435166856fb959625d567c92ce9ac20073d063e0e94e36109a052610840527f0d67d70ad74db3b2eafec2ca2c819816e487d1fa29a15ca213f38a46a77c7d806109c09081527f285e1aa325995fa12936d0eea843c4b0dd0ac6db5510826f9b585c16806325636109e052610860527f165a04ef5bee8a96c8119c31502842aa34d60394793b8f937def7459b04d7135610a009081527f093ac34388aa5f6d55d8270e5a66328a04990230698de2326ab6e0495464816d610a2052610880527f27e79d515fe3439ddf81a8549902b5e9042e201c6769b8910a18dafed11d5748610a409081527f014ee84f3f0eeefd5ab1f81da564af7864d6204e9ccbfff66916a85d13e6fa4a610a60526108a05260c0527f08d529aaca586b844314f80edfb1784260646108b75c158ce3f088c188bc802e610b609081527f234536b6213200b2b44aebffcf0b574a2d0f4f2b47ef98db4b4431cfefc3bf22610b8052610a809081527f2e556c221fa59c978e78e9bba38e8947b59ef785b5e31ec8cf90e613787fb793610ba09081527f059469a2c10792ee9f1573148667562f175586470cea1dbb54bed106ef361b34610bc052610aa0527f15d64dac8e74c233b7859722356fc14c262242ae306c20f060880dbd9baa452e610be09081527f2c28232f85d16cdd157a841cd7795ae537f6769d6b30fd18e9e03060246cc03c610c0052610ac0527f0dfb95a3e8c20cf8a70021ad12080f778abc60508bfe088803fdd53c46b4202c610c209081527f224c92fd97d25de5d97901b9046ee6a5788dddf425cdba5d6e8ecf6ea83248c8610c4052610ae0527f1923f2f39f07d16e03562b8f1efed58073a457af74aa02179ced725e015b682c610c609081527f19fe61c672e47a96a72333d6a66b7d8447ed8838fda18031d49370f0b7667607610c8052610b00527f1d5da06c3e0fcfbe6c9e08f3f0eb1aa56b2927d65f2517bd5adbdab0609bc7d7610ca09081527f03dc485cb2654fa526804696fae41fed451342bbfbcee7cc006f4f2271514d73610cc052610b20527f11ac6ab06bbe07af99a7b46a2e5b3b9b80f5a57b64298f686c8660e36ea8bf36610ce09081527f0b66b9cf601565d1ea0341acb52c80d0114f7cf805b0d2a94848782bcd9c285b610d0052610b405260e0527f29f41c6e0e30802e2749bfb0729810876f3423e6f24829ad3e30adb1934f1c8a610e009081527f030e7a5f70bb5daa6e18d80d6d447e772efb0bb7fb9d0ffcd54fc5a48af1286d610e2052610d209081527f0ea726b117e48cda8bce2349405f006a84cdd3dcfba12efc990df25970a27b6d610e409081527f30364cd4f8a293b1a04f0153548d3e01baad091c69097ca4e9f26be63e4095b5610e6052610d40527f2c097b31a897227a6f64c9fc31d9a8fc421b0d8b8207f92532b464e431e61db8610e809081527f0fcf6d89d77d5123a43dfb23efb9c929c28c148ca82c794057864b8e66903c54610ea052610d60527f0186dae5999acfe2cda6fa7a157ae726afda7c6f57b00ea0aa6c2c23bf838388610ec09081527f2f078608f710c45b60d23716c58e106d8c7a1c6db28119defffc413e074f8716610ee052610d80527f2464c1784bda2cbfb51e5ab87cf7eb2764ad81f7038152bdbbb07d404b49aa37610f009081527f0638b273e4ee33e03e42ca6c7de1ea7043dbdcaa48661864de644d91c6b4821f610f2052610da0527f098ce8b5289ef791db34b68b9e0043ab7bf25306d83a9f0ce74396b8a69c57bb610f409081527f1ec6f7a81748f3d2c2b87610d747ca72045ac1530e226f00710630d41aad7e26610f6052610dc0527f07dbf682cc528d3ff763fa576d05db50e023921728119ef66f880b6adae01cbe610f809081527f0d287dcd9318207576eaa871e7b3308f613d9df7865059cdbc9f66fdef342dc6610fa052610de052610100527f086d48f63f5c71cf5d49053014fd136b4f528a67c3d2500dc0359017376ef9e96110a09081527f13f83d45b3aa4ec86d3b9871cf43ccd7633306b29af07e7c70b13a212501b9c86110c052610fc09081527f240e3efc96e362bb9412aad60ae0ec25d4fced28aac3aa803e7287d3b6d425eb6110e09081527f1b7b1edff9f984c2ea43d3aab2487e863a4dee1c266fa2fc05f2a53bba124cb561110052610fe0527f14fdea340c7d5e62f830e244237c704e516d90f29a5e71f45928e97bb16037686111209081527f1a0d3b9393c5595d11f31f2cb0b38834d26debc568a0b36e26fa93b6b05f70d361114052611000527f10b7fcb32afd1649ac4560aff9047bc52972befd38a21b870c0519719afee22a6111609081527f27b1c713b71efa1eae72c81675ac78c578fa7ac8718cbd58d84fbe432f3d678361118052611020527f2ac10655edcd4c74305d2d323239400baf8541470936b2e1ac77167e31e8a9e26111a09081527e15b63038e94a1d4d5a85c7a666875e7f693a922ea2723a3e39f256b240f6076111c052611040527f2ed2a0a894b904559562fb1643c8b69a743e39a15455d6c6a0d668b3214793416111e09081527f15a2ed81d1ac5a1383524fd4daf70220034a6f40d643da7b79f9a20cab1895b061120052611060527f190cd68f815b152eb0c8474be622c18a56d2e518bf6ddbb929af7d50a2cedab96112209081527f034b50d36d6b6dc03d6e6eb0f731eb1dd5df2f6300a760eab888e859f45f38756112405261108052610120527f14f8ae76e209b3857222b80044dfc5baaafcf6e30497fac6910d74db4f99cbc46113409081527f26f83f4984eb300f438c191ac9c7cefa55e22cb19fc1c29cc690eb0b03c70116611360526112609081527f1b658d7292b467a21e49116237813440d88a76fa6ef89db931e09b17ed0be4496113809081527f29e759b830c254718fea4dfbbe6b17edc38e4b5a43d343eeb473f9894496b79f6113a052611280527f302dad4ea4d062effd18ec15d4a252b5881e1423a26ec6c859ec09ddc44496b56113c09081527f188664ee38c3f83423eb8c75ebc54d7ba95d5a728a3f7186fb4eb96e0702f7df6113e0526112a0527f14d2ec2fcb446a46ea217305921bbaed7b89d6059a3a044dba8dd6943b0379f46114009081527f239ff36e4d70fee9088c5e61e7b5974d9726f6c554266bb26608973532913e60611420526112c0527f2c56b0e10ffbd7514c0c3e402662681881f06cf50ff9338a73b6f1e5f74ccf056114409081527f20e451924e71fb82d8f77683821fb35996645442b49e4a801b99256e51e66c79611460526112e0527f0951b7de5b62bfa1727fc51f791f0e8c9f5a89012fdcf10426bbb9f422ea6eb06114809081527f0b8dc77891aa39b647a3e3044c7c2fdd27e06c4aa55c4e54b9a3cf4c4096edd96114a052611300527f0dd1830feaf2cd658f56300da9a0a5a8cf324a1ed720c283c86bd37f7484090b6114c09081527f034140e7667ae5210cf863a7c8975117172af40f2d45e635e5b9f5042be9ba196114e05261132052610140527f15bc113f408c7e7a786363979ae9279915708775076e86a44495064804663e156115e09081527f19393ee4d81d952e8bf375888005c8314c87c632eebabd7a8d55940b0f7a66f5611600526115009081527f1a1f001347928a9a21ea414ccc67c3d1590dc29d437d68fc3ab020efb6ada72a6116209081527f2c265c6b30a34bd323024f87bf2cd5a269e77c50c75e5ea317280785f91eb67c61164052611520527f06bcd0efa27998d5f0daffaad7d6a98e3d0fe589e261f9b30c09169ef48847926116609081527f2cc0792f40378327989245d05e386fcff9a2a9aa285746043cb3f621ae2f04fb61168052611540527f0d306d920f3cc9d08dbd4549ebb3dd8d5fa10bd2c0a6663cd08e6291573486516116a09081527f2d3df68c9b28bf980dfea7683eba674a0415a26017ac2bef27176b88ca57f9366116c052611560527f24b61ef328570152ff83827a0f379f6c542398f3d1bc542c2bc34edd031e294f6116e09081527f1b03be64a67b3976e58415dcd6b353b32be9b0bad35d2d18b296453a28d985a461170052611580527f036cb3be4f36d6f5b34d8808b1e3e2ccb3fb1e3fd249eea06b1cc6761320b08c6117209081527f16fa67f812376a8ac79a40970332c6ec7ced15f9539334fe642164284775e1f4611740526115a0527f23c611b7426b5dbce2f272a6046db21be35abadd4293876ecf50d58c5f17b2ae6117609081527f1b1f0f9654e7d10b58ddaea64e20abee44f52bdd0cb58123b69c9011b497e0dd611780526115c052610160527f213db2bdfb128fec0e98d364b9109caf26d66cacbbc808535af07af00200acc66118809081527f164ec2e66021720a0d70b0cc70597ed748f0af9b080f5e789a821de5b0a91a1a6118a0526117a09081527f2f2f2c0cc9d9b911a348466a4749c3a49d2629c9dde430ec9474f2bb06fc7f2f6118c09081527f173b3259b29d0e0c0176e2424bee65405bdd1e611bb933c19f5bfed931aab21e6118e0526117c0527f2b501c6317c16d185d7797db4b8735388ab31aa4d5d022502dce7c0fa5f30e3b6119009081527f05e94a656be4a2f9128583762dc9e007d450315e71ef4d6cf82e64ee74325562611920526117e0527f1da680138dd3bdd851d6edcb441a137301ca1902c6c50036b27153520aee7fb46119409081527f25fc89274231e8228cba90e52607039681d60f5d6b3a07fb429d116f53a4443d61196052611800527f2a5036a81225c106605e7233124414ca2359360b60f19da736e6b4ebcfc9ce546119809081527f1f939f972ad716e18a465e4c5ec3669976b77364106a0cd73418ba058b7884cd6119a052611820527f2c9f9c6dfd0aa6e591235ad81a9923fe056846ca742e53af6a571ec00519d9b56119c09081527f0b8c60480c49dcfad4a82226600a9569494567e627301779e35b9bf8e0fe43d36119e052611840527f1b447eb43a748829489de9e667c53a3053498f9adaa59b0bedcc7c8b463f5154611a009081527f085fb2aea389c48f2e7d17242f64b5bc3506cdf55b20bf9395da0e2f749bb09e611a205261186052610180527f22c048af0497a1f7d9822f8b3edb498f614b85ce744ffe3e6ff58119d1618542611b209081527e18987c19177ca3ef0a85089090a97d608e3a9648b25d4ae1f673c134c591e0611b4052611a409081527f18d7d7154f3e946f1d5930f5c95f3b76bf39cfd3cc0266d8e9565df8e1ce6083611b609081527f097ba0c470041aaa08b64e9bf5a1bfe568d9a7689a7c597bc5c87fd9acc1c0ae611b8052611a60527f29141df1097c02a70ac3504a99ee5e8bfbea03aae01a3c2ab86ebe0cb9265f5f611ba09081527f2d5bbfef49b2e4745d3a349dd67a035cfd4ce9313d3a20911376b21ec05e8b37611bc052611a80527f2c4ef818e2918b7c272380c498e5c402928e4598adf31db243b591362011587e611be09081527f0dfcbeee8258030ee712429f77d640767a137fd809bd80027218d6719c14fe7f611c0052611aa0527f1d55f8c7220cc6989034a2259e5764a0687c9410421fa5408174906d1511d83e611c209081527f1471dd2d031a794968eaaf6a8e5551fbc8163c20617876438d535b2b383172e1611c4052611ac0527f0ddb36c33249944ac8bf7f0222f37712681d705bce9e0ef786fb6283306a255d611c609081527f040d0656b2bba0b1b3c21822ea3fd5671359a1a04d76473b68217b4616f9559d611c8052611ae0527f24cff40932a3db30de20c16b20e68497cb42c750483824c3ef371f4e9045c6bd611ca09081527f1f431dccba254912b6a795ee36dcd115094cb44367768abdc27bbc5669eb8a32611cc052611b00526101a0527f03cf7157aba9c6be40a06864fa2c0e06f7178133d9c3768ff3982814946b0f7d611dc09081527f08e4f2655701b165858a2fc04d15297c282aec942c4a521cbe687772a2a775ad611de052611ce09081527f10eab11af7f34e5cdb73b010a98d7f18c7410eec5d8eb1b4526359f5ab246b2d611e009081527f2727dfb72de41bcd49e47c8940bfe75b600bd39467763baecc6f8087130866d9611e2052611d00527f096440bcf7534fd07ca2a941ad8fb743c49c0a5684920ee13e992f3ab8342af9611e409081527f200eecd036971149677fdd19a7f2dc2e2a33a460211994adce7f967da2920b9d611e6052611d20527f2ee692deea7671684657a2ee16ffb165dd3bfd3cb8af86620b7d0feeaad66248611e809081527f0328fec7c2ec04f0a7375c917f31ee23af341252c71051e8cd9a80ce9080121b611ea052611d40527f1b8f18e1106fa4188030c6c00b7a9b76bc309ffadb11f47d5ff38bd616f06e60611ec09081527f09adb161ecc2264110216d13cd5dad70d58dcc398f9431844f9faef1baabeece611ee052611d60527f18f1f7aa58cecca54d15b583367484da5dfc809734621c5699e4f812131b2859611f009081527f2f73d9c341a4bb3a5737672b5e6191848505c5ba127370425286901bf628b438611f2052611d80527f2b869cfd2665da2a22c29622642595edd5bcded7e84209a1a0cd0a07c2d0c743611f409081527f09d3dfe76c7b340c97705915c61f06591d27c5e3ec9e9a91582188298aab2598611f6052611da0526101c0527f01a62dac147fd2d28c728dd7692a3505c43fa3ac0d580acde5208af76827a4146120609081527f1d088b6d1f7c61f16092a5e2ef4a1f9743db839996d5e3e055b020d21c807a4361208052611f809081527f04b3b6ae3a5a0590cf6c632dd5b19fad64b35508945e76465baab77eab5a75446120a09081527f2e3a6b4c59e33e5d9f5f309887f89b55e69614d8ae0fdc337f658a880e4bb2e76120c052611fa0527f077df97d4ad49afc58e0990d3f4c43fb5a66de4fdb6c149212dadd1120da9dd16120e09081527f2e7590fddece695cf2e40c353691bbaf6e48a631b799dc51ea400db7168fc6ee61210052611fc0527f1742dab9e730eafb41b052f0f9452b449d3424442df19e5e9ca46b1eb37ede186121209081527f1d3005df367bee452065f076925df17570f53f8c90f66780d986343035cdbd9761214052611fe0527f23c00b1148eb39bf17c89e79bf445d07d112d956d3e1a07048fe1d937d0004106121609081527f0d46b3410227aa67c7130da647213a8c964536737735218df087db3c101ce34961218052612000527f16b7cad8bbcc92747ea1b6d25279e35222f5f5887691feee05fe82e04f3665dc6121a09081527f0d2abb809fb2ad694b1688bc906ec63b5f6155f0d45939c0d2ab96a70bda16656121c052612020527f2a230ebd4006758badc83062c05a841f6467045ee5d4b5952ef2c6e786ed4bff6121e09081527f2a742766ba7e97cf0d388821cbb1ca01d0102c3b7880e9c976b19c5e2a698f0b61220052612040526101e0527f0a1142b39cac59d311fda518c2d4eaadaf36319a0b1cb5624b52b11768062a196123009081527f2538a481cee0a6745650435dd283ebe8a0186824a30756d83b6afdd7fa6186e8612320526122209081527f073c0d6ef96d93468e746fe7a9688f3053d5c9a96c3a2b039b7096ca0a3a9cae6123409081527f01ee855a906702a4d58af8e0a49c4db6d58da5f166ad7283223b079b96e9773461236052612240527f115ee58656b27d353eaf5e01de11f58159d35750e4df5753c25ad967a58834096123809081527f19e20d0d752f4a8feb8aa3184b57129077b63d6c7023f816f54d470bd51751be6123a052612260527f066a9e5fbc3e8612b3401e42befc4b9f5e3428bf08ec91ef104cde862e53c54a6123c09081527f090c13b76bc68d4307215f8025bbfa13e003accc57b6055b629f13f2e87383d96123e052612280527f28a2fb7c5e7425e4b49b1865ad6b43c8ba34c642f58aee8db5d352f93201a7ac6124009081527f2010477774686ef83e8f2af52b3b04795e145b0228cd6af3e60c0ea87c87b1d0612420526122a0527f06260e7c05ca5ad151092a548392246cb2d3ca6fbeaa07ba5aa629977702698d6124409081527f07bcf63a827724040c9944cc4314d740cd02a1d7fddd54ad6aa8da63e83ca524612460526122c0527f13a1f861a361a435d3c15ad8be0f73afe724f09a86f2f0bc8731889232a258ed6124809081527f2a2eeaf8fb3ea2c877e411b9b541abc46be4b2782bff6ec46157fe8d1f546b286124a0526122e052610200527f1008ad7b2099ae56dc0478b9b79dc31c9d9973352ee80a724ec1be777d49e5ef6125a09081527f10ce43af4007cb53217273748eff14ea3894d61d16b4d25c7e4ae5c28edc85cc6125c0526124c09081527ef71c6a739cf1c46d111ea159ecfe61278f110bc41f61b4d87d10c8643ad3dc6125e09081527f28e6b34e8d433462f6fd110ddb1b39bab64bfc4cd5aa802fb96a2d73970c336c612600526124e0527f28bdb5a19bbac721cd1599254ae6278ebf250f1c5d569dc3128e21f11a5d34276126209081527f0bb76843462a16985e13a6dc0592851549070ea3293c187d63f0df32f0dd693661264052612500527f0942698159a2ef1d9a9420193d83bf956081197e10ac7ab550ebd932aaf19e906126609081527f060403214a5dd63e1f8ad5821a89eb3fd389856b2d9e6d3915f6a26dfde8999361268052612520527f1d4ee42feb438c818d15badde8d1ba7c615d85e6c9e93df8605470d5760f71926126a09081527f17b47a9569d5ec3bddafda249ac91e97070d549979262cf3692242caa17c459b6126c052612540527f15b8453b386c5563cce2a22af5430b941bb1709202f58ef9c4a48413d9e499c16126e09081527f22d52ab21357018eb24ce7508c0d04130c1ddea4a5136cb73ee58063bd8584af61270052612560527f2ecf342deb9fe786ca4772c3a0b3cacae3ab5d1942e0a08eb4696041d57630716127209081527f1eb6d6da821f70eb0b7b9372cfdde917839d8977b90b5ad48f472b33ac6485096127405261258052610220527f168e4fddac50a40d5bcff39c7fa9207cd368444c0c01a86690a6645b52f3aa1f6128409081527f2139a256456825daa623957c4f2ea1a0d26f135769e450759142a7159b0a4476612860526127609081527f28deba4ed0a3b79dbc6a7dac67c07051f421904de49dcd7ae91aaf1223bc6d636128809081527f1c3976c9a490dad50e601586279bb60f12416a8cc141710167fcdc0dc931bffd6128a052612780527f0335f514c2acb9b255aae85514122267cd7d16e374c6231a2c34417d344912546128c09081527f07fa1580c1cc3ed4f6d660c6f60f86afedd8a12fb90b2e8ed4f7e310c88b97f76128e0526127a0527f20b781dd0db3b7980a4b3814128c86e597e1442d0fc9eb7f932a5229494d6b796129009081527f17d1cef436eb2f665670c7b34854e62c227043a7b111a539c0295518bbab3ca9612920526127c0527f260945445b4205f874ab7e203a18240e51c9d3c896ea300d40132b1c2f50299a6129409081527f11087a8b76b0f957e1c482c909302916795f811a06866059e403689c01c903fb612960526127e0527f11d20fd81c0e5cf48ba1469ccb8ac99dcdc7cf746a6e70762a939d63dcc52dbf6129809081527f2d447c5f134eff527d7bcaace88b3842c42b800d8dc049e0a6e72f5efc14293d6129a052612800527f107cd54a1606a6a873bed4c1b76af48975e66dcf6c127b4c799ad4fdd230b87c6129c09081527f1a51b81f6c07725ebcc56ebb1c482b99340eaa9bcb86cc09aed6f58a28e530b66129e05261282052610240527f21026f2492115bc10ad0a5d50cf101474fb0c5e53b25612d8156989bb8cbbed6612ae09081527f1e4048744f2e211ffa8cfac1d2efbae21234bfaa15c8d640171182c9b386e8e2612b0052612a009081527f295aed6c2486154603e450f3d49b39fee1bf9ffc4bc4194f403a02d66e7954f6612b209081527f2f2045b5a78523c7892e775d7f8fe805563acebd5ab053745ea735ab7930afa5612b4052612a20527f1beb6fbfbc70fb2711bc7c187cf0ec4b63ef6651b02742c9fe71de1aef7ffdb1612b609081527f215e8105a1a572b106c2bb0d1f0170bbf8ffda20957ea14b709a7f6cc778f966612b8052612a40527f0e9404f55d91e9964e7b921158995a81097cf27b017273cc2c133107c6534837612ba09081527f2902b31b20c04311298f9b90026980b7963a001834fa663eb83636ec5fdb7b6b612bc052612a60527f0ddd515b58aa44c26b377e2c82c83c7d75722131ee7139ddb18082e2da8ddda0612be09081527ec958a799e9a65df6bd806e7bb76140d415ca61d1ffc2b2351b12e85553268a612c0052612a80527f04adb15295c975c172a9a508c71dee5517223306cd091fb9881d0dca5d57d1d2612c209081527f08da6902b366d39b8a7ef07c831486aabbf834bbd07813bdcdb92be7850b2ca6612c4052612aa0527f094ce0ba5287bd96c37794306fe6b0c5541fc77f05aab2b4b8a80564d086bfcc612c609081527f2ad90cdefdb6c12edc35cf483e270516b0ad3ed872dad6031ec705fba888258b612c8052612ac052610260527f1b3a2deb5f90e41493bd6eca49124ffd998376cc19df2a131f619a9297e76ab2612d809081527f29fead8cbc4c7d473dd6a1f39e066c1a3b065c3d02407b8d977a6f4dc528e544612da052612ca09081527f27d69ef118055fceb37561e935fa4927952116ac0c00fbb8d2131ab68e12d9b0612dc09081527f1c17e9a456e1a74448a960dcfe32f84bc0fa84f1ea428f907f0ae9e3db1e4f4d612de052612cc0527f05bb401ea4577a1cf48cb24f6668ae5a9621b808d302044b53016f7f29fce06b612e009081527f1a31802b5590506650d4bdb3b20c9ae4aec7a5e1430202ec52fbaa35c78b08a3612e2052612ce0527f07664b2723c11dccc1e71f59742b84568e6a5d1b7df21cd86f02f976047a2df6612e409081527f22d6d128fb4f49c32dae5f249410aaf0b2e039a9fb0f8aea8929da4bbe0cf357612e6052612d00527f2d62d32c2ab7039c0294535b501330cc326affb6ac0c4d34a1971857fc5a5b15612e809081527f27da035244e64180b7abfd1eb92e132275274b72b09a52fc42aebfb66e0068eb612ea052612d20527f15aa7fb602df2aef2504640ebe99a0eb203f1891304b2b9635618cbfc9b56b34612ec09081527f0b0d0c477afc716d17d46acfa3dda4638919ec8092570b87178955f2cad9fdfb612ee052612d4052612f406040527f23c3983ac2b053ff6cab78d798397f954174f60664bc127a0babe5cb4e85a9dc612f009081527f305e217ed6d494f993fa931a22615957da6fd13bc9cae958ad4d3a48c7cbbf87612f2052612d605261028052620025a4906000906011620025b9565b50348015620025b257600080fd5b5062002700565b60ee83019183908215620025f9579160200282015b82811115620025f9578251620025e890839060076200260b565b50916020019190600e0190620025ce565b506200260792915062002659565b5090565b600e830191839082156200264b579160200282015b828111156200264b5782516200263a90839060026200267a565b509160200191906002019062002620565b5062002607929150620026b9565b8082111562002607576000620026708282620026d5565b50600e0162002659565b8260028101928215620026ab579160200282015b82811115620026ab5782518255916020019190600101906200268e565b5062002607929150620026e9565b80821115620026075760008082556001820155600201620026b9565b50620026e690600e810190620026b9565b50565b5b80821115620026075760008155600101620026ea565b6112bd80620027106000396000f3fe608060405234801561001057600080fd5b506004361061002b5760003560e01c80639aca8f2a14610030575b600080fd5b61004361003e36600461113a565b610045565b005b61004e846109c9565b9350610059836109c9565b9250610063611000565b6040805180820182528435815260208086013581830152908352815160808082018452868401358285019081526060808901359084015282528351808501855290870135815260a08701358184015281830152838201528151808301835260c0860135815260e0860135918101919091529082015260006100ed6100e8601085611264565b610a00565b90506000816080015160008151811061011657634e487b7160e01b600052603260045260246000fd5b6020026020010151905073__$79cd7db734f712b9832bde448ce9e8fde5$__6318c77c958273__$79cd7db734f712b9832bde448ce9e8fde5$__636e1b6990866080015160018151811061017a57634e487b7160e01b600052603260045260246000fd5b6020908102919091018101516040516001600160e01b031960e085901b168152815160048201529101516024820152604481018f9052606401604080518083038186803b1580156101ca57600080fd5b505af41580156101de573d6000803e3d6000fd5b505050506040513d601f19601f8201168201806040525081019061020291906110e0565b6040516001600160e01b031960e085901b168152825160048201526020928301516024820152815160448201529101516064820152608401604080518083038186803b15801561025157600080fd5b505af4158015610265573d6000803e3d6000fd5b505050506040513d601f19601f8201168201806040525081019061028991906110e0565b905073__$79cd7db734f712b9832bde448ce9e8fde5$__6318c77c958273__$79cd7db734f712b9832bde448ce9e8fde5$__636e1b699086608001516002815181106102e557634e487b7160e01b600052603260045260246000fd5b6020908102919091018101516040516001600160e01b031960e085901b168152815160048201529101516024820152604481018e9052606401604080518083038186803b15801561033557600080fd5b505af4158015610349573d6000803e3d6000fd5b505050506040513d601f19601f8201168201806040525081019061036d91906110e0565b6040516001600160e01b031960e085901b168152825160048201526020928301516024820152815160448201529101516064820152608401604080518083038186803b1580156103bc57600080fd5b505af41580156103d0573d6000803e3d6000fd5b505050506040513d601f19601f820116820180604052508101906103f491906110e0565b905073__$79cd7db734f712b9832bde448ce9e8fde5$__6318c77c958273__$79cd7db734f712b9832bde448ce9e8fde5$__636e1b6990866080015160038151811061045057634e487b7160e01b600052603260045260246000fd5b6020908102919091018101516040516001600160e01b031960e085901b168152815160048201529101516024820152604481018d9052606401604080518083038186803b1580156104a057600080fd5b505af41580156104b4573d6000803e3d6000fd5b505050506040513d601f19601f820116820180604052508101906104d891906110e0565b6040516001600160e01b031960e085901b168152825160048201526020928301516024820152815160448201529101516064820152608401604080518083038186803b15801561052757600080fd5b505af415801561053b573d6000803e3d6000fd5b505050506040513d601f19601f8201168201806040525081019061055f91906110e0565b905073__$79cd7db734f712b9832bde448ce9e8fde5$__6318c77c958273__$79cd7db734f712b9832bde448ce9e8fde5$__636e1b699086608001516004815181106105bb57634e487b7160e01b600052603260045260246000fd5b6020908102919091018101516040516001600160e01b031960e085901b168152815160048201529101516024820152604481018c9052606401604080518083038186803b15801561060b57600080fd5b505af415801561061f573d6000803e3d6000fd5b505050506040513d601f19601f8201168201806040525081019061064391906110e0565b6040516001600160e01b031960e085901b168152825160048201526020928301516024820152815160448201529101516064820152608401604080518083038186803b15801561069257600080fd5b505af41580156106a6573d6000803e3d6000fd5b505050506040513d601f19601f820116820180604052508101906106ca91906110e0565b60408051600480825260a0820190925291925060009190816020015b60408051808201909152600080825260208201528152602001906001900390816106e657505060408051600480825260a0820190925291925060009190602082015b610730611051565b815260200190600190039081610728575050855160405163a680077560e01b815281516004820152602090910151602482015290915073__$79cd7db734f712b9832bde448ce9e8fde5$__9063a680077590604401604080518083038186803b15801561079c57600080fd5b505af41580156107b0573d6000803e3d6000fd5b505050506040513d601f19601f820116820180604052508101906107d491906110e0565b826000815181106107f557634e487b7160e01b600052603260045260246000fd5b602002602001018190525084602001518160008151811061082657634e487b7160e01b600052603260045260246000fd5b602002602001018190525083600001518260018151811061085757634e487b7160e01b600052603260045260246000fd5b602002602001018190525083602001518160018151811061088857634e487b7160e01b600052603260045260246000fd5b602002602001018190525082826002815181106108b557634e487b7160e01b600052603260045260246000fd5b60200260200101819052508360400151816002815181106108e657634e487b7160e01b600052603260045260246000fd5b602002602001018190525084604001518260038151811061091757634e487b7160e01b600052603260045260246000fd5b602002602001018190525083606001518160038151811061094857634e487b7160e01b600052603260045260246000fd5b6020908102919091010152604051632f3ed53960e01b815273__$79cd7db734f712b9832bde448ce9e8fde5$__90632f3ed5399061098c90859085906004016111bb565b60006040518083038186803b1580156109a457600080fd5b505af41580156109b8573d6000803e3d6000fd5b505050505050505050505050505050565b60006008826040516020016109e091815260200190565b60408051601f198184030181529190528051602090910120901c92915050565b610a08611071565b610a10611071565b6040805180820182527f2d4d9aa7e302d9df41749d5507949d05dbea33fbb16c643b22f599a2be6df2e281527f14bedd503c37ceb061d8ec60209fe345ce89830a19230301f076caff004d19266020808301919091529083528151608080820184527f0967032fcbf776d1afc985f88877f182d38480a653f2decaa9794cbc3bf3060c8285019081527f0e187847ad4c798374d0d6732bf501847dd68bc0e071241e0213bc7fc13db7ab606080850191909152908352845180860186527f304cfbd1e08a704a99f5e847d93f8c3caafddec46b7a0d379da69a4d112346a781527f1739c1b1a457a8c7313123d24d2f9192f896b7c63eea05a9d57f06547ad0cec8818601528385015285840192909252835190810184527f198e9393920d483a7260bfb731fb5d25f1aa493335a9e71297e485b7aef312c28185019081527f1800deef121f1e76426a00665e5c4479674322d4f75edadd46debd5cd992f6ed92820192909252908152825180840184527f090689d0585ff075ec9e99ad690c3395bc4b313370b38ef355acdadcd122975b81527f12c85ea5db8c6deb4aab71808dcb408fe3d1e7690c43d37b4ce6cc0166fa7daa81840152918101919091528282015280518082019091528060008560118110610bfd57634e487b7160e01b600052603260045260246000fd5b600e02016000604080518082019182905292600292830201919082845b815481526020019060010190808311610c1a575050505050815260200160008560118110610c5857634e487b7160e01b600052603260045260246000fd5b600e02016001604080518082019182905292600292830201919082845b815481526020019060010190808311610c7557505050919092525050606082015260408051600580825260c0820190925290816020015b6040805180820190915260008082526020820152815260200190600190039081610cac5750506080820152604080518082019091528060008560118110610d0357634e487b7160e01b600052603260045260246000fd5b600e0201600280020160000154815260200160008560118110610d3657634e487b7160e01b600052603260045260246000fd5b600e02016002800201600101548152508160800151600081518110610d6b57634e487b7160e01b600052603260045260246000fd5b6020026020010181905250604051806040016040528060008560118110610da257634e487b7160e01b600052603260045260246000fd5b600e020160036002020160000154815260200160008560118110610dd657634e487b7160e01b600052603260045260246000fd5b600e0201600360020201600101548152508160800151600181518110610e0c57634e487b7160e01b600052603260045260246000fd5b6020026020010181905250604051806040016040528060008560118110610e4357634e487b7160e01b600052603260045260246000fd5b600e020160046002020160000154815260200160008560118110610e7757634e487b7160e01b600052603260045260246000fd5b600e0201600460020201600101548152508160800151600281518110610ead57634e487b7160e01b600052603260045260246000fd5b6020026020010181905250604051806040016040528060008560118110610ee457634e487b7160e01b600052603260045260246000fd5b600e020160056002020160000154815260200160008560118110610f1857634e487b7160e01b600052603260045260246000fd5b600e0201600560020201600101548152508160800151600381518110610f4e57634e487b7160e01b600052603260045260246000fd5b6020026020010181905250604051806040016040528060008560118110610f8557634e487b7160e01b600052603260045260246000fd5b600e020160066002020160000154815260200160008560118110610fb957634e487b7160e01b600052603260045260246000fd5b600e0201600660020201600101548152508160800151600481518110610fef57634e487b7160e01b600052603260045260246000fd5b602090810291909101015292915050565b6040805160a08101909152600060608201818152608083019190915281526020810161102a611051565b815260200161104c604051806040016040528060008152602001600081525090565b905290565b60405180604001604052806110646110c2565b815260200161104c6110c2565b6040805160e08101909152600060a0820181815260c083019190915281526020810161109b611051565b81526020016110a8611051565b81526020016110b5611051565b8152602001606081525090565b60405180604001604052806002906020820280368337509192915050565b6000604082840312156110f1578081fd5b6040516040810181811067ffffffffffffffff8211171561112057634e487b7160e01b83526041600452602483fd5b604052825181526020928301519281019290925250919050565b6000806000806000806101a08789031215611153578182fd5b8635955060208701359450604087013593506060870135925061018087018881111561117d578283fd5b60808801925080359150509295509295509295565b8060005b60028110156111b5578151845260209384019390910190600101611196565b50505050565b60408082528351828201819052600091906020906060850190828801855b82811015611206576111f684835180518252602090810151910152565b92850192908401906001016111d9565b50505084810382860152855180825286830191830190855b81811015611256578351611233848251611192565b85015161124284880182611192565b50928401926080929092019160010161121e565b509098975050505050505050565b60008282101561128257634e487b7160e01b81526011600452602481fd5b50039056fea264697066735822122051673939340410aa1607a8ce2dabbb469163b2e4e5239564edbd503eb3ba494664736f6c63430008040033",
    "linkReferences": {
      "node_modules/@semaphore-protocol/contracts/base/Pairing.sol": {
        "Pairing": [
          {
            "start": 10290,
            "length": 20
          },
          {
            "start": 10317,
            "length": 20
          },
          {
            "start": 10653,
            "length": 20
          },
          {
            "start": 10680,
            "length": 20
          },
          {
            "start": 11016,
            "length": 20
          },
          {
            "start": 11043,
            "length": 20
          },
          {
            "start": 11379,
            "length": 20
          },
          {
            "start": 11406,
            "length": 20
          },
          {
            "start": 11896,
            "length": 20
          },
          {
            "start": 12402,
            "length": 20
          }
        ]
      }
    }
  },
  "methodIdentifiers": {
    "verifyProof(uint256,uint256,uint256,uint256,uint256[8],uint256)": "9aca8f2a"
  },
  "id": 22
}