{
  "abi": [
    {
      "inputs": [],
      "name": "InvalidProof",
      "type": "error"
    },
    {
      "inputs": [],
      "name": "P1",
      "outputs": [
        {
          "components": [
            {
              "internalType": "uint256",
              "name": "X",
              "type": "uint256"
            },
            {
              "internalType": "uint256",
              "name": "Y",
              "type": "uint256"
            }
          ],
          "internalType": "struct Pairing.G1Point",
          "name": "",
          "type": "tuple"
        }
      ],
      "stateMutability": "pure",
      "type": "function"
    },
    {
      "inputs": [],
      "name": "P2",
      "outputs": [
        {
          "components": [
            {
              "internalType": "uint256[2]",
              "name": "X",
              "type": "uint256[2]"
            },
            {
              "internalType": "uint256[2]",
              "name": "Y",
              "type": "uint256[2]"
            }
          ],
          "internalType": "struct Pairing.G2Point",
          "name": "",
          "type": "tuple"
        }
      ],
      "stateMutability": "pure",
      "type": "function"
    },
    {
      "inputs": [
        {
          "components": [
            {
              "internalType": "uint256",
              "name": "X",
              "type": "uint256"
            },
            {
              "internalType": "uint256",
              "name": "Y",
              "type": "uint256"
            }
          ],
          "internalType": "struct Pairing.G1Point",
          "name": "p1",
          "type": "tuple"
        },
        {
          "components": [
            {
              "internalType": "uint256",
              "name": "X",
              "type": "uint256"
            },
            {
              "internalType": "uint256",
              "name": "Y",
              "type": "uint256"
            }
          ],
          "internalType": "struct Pairing.G1Point",
          "name": "p2",
          "type": "tuple"
        }
      ],
      "name": "addition",
      "outputs": [
        {
          "components": [
            {
              "internalType": "uint256",
              "name": "X",
              "type": "uint256"
            },
            {
              "internalType": "uint256",
              "name": "Y",
              "type": "uint256"
            }
          ],
          "internalType": "struct Pairing.G1Point",
          "name": "r",
          "type": "tuple"
        }
      ],
      "stateMutability": "view",
      "type": "function"
    },
    {
      "inputs": [
        {
          "components": [
            {
              "internalType": "uint256",
              "name": "X",
              "type": "uint256"
            },
            {
              "internalType": "uint256",
              "name": "Y",
              "type": "uint256"
            }
          ],
          "internalType": "struct Pairing.G1Point",
          "name": "p",
          "type": "tuple"
        }
      ],
      "name": "negate",
      "outputs": [
        {
          "components": [
            {
              "internalType": "uint256",
              "name": "X",
              "type": "uint256"
            },
            {
              "internalType": "uint256",
              "name": "Y",
              "type": "uint256"
            }
          ],
          "internalType": "struct Pairing.G1Point",
          "name": "r",
          "type": "tuple"
        }
      ],
      "stateMutability": "pure",
      "type": "function"
    },
    {
      "inputs": [
        {
          "components": [
            {
              "internalType": "uint256",
              "name": "X",
              "type": "uint256"
            },
            {
              "internalType": "uint256",
              "name": "Y",
              "type": "uint256"
            }
          ],
          "internalType": "struct Pairing.G1Point[]",
          "name": "p1",
          "type": "tuple[]"
        },
        {
          "components": [
            {
              "internalType": "uint256[2]",
              "name": "X",
              "type": "uint256[2]"
            },
            {
              "internalType": "uint256[2]",
              "name": "Y",
              "type": "uint256[2]"
            }
          ],
          "internalType": "struct Pairing.G2Point[]",
          "name": "p2",
          "type": "tuple[]"
        }
      ],
      "name": "pairingCheck",
      "outputs": [],
      "stateMutability": "view",
      "type": "function"
    },
    {
      "inputs": [
        {
          "components": [
            {
              "internalType": "uint256",
              "name": "X",
              "type": "uint256"
            },
            {
              "internalType": "uint256",
              "name": "Y",
              "type": "uint256"
            }
          ],
          "internalType": "struct Pairing.G1Point",
          "name": "p",
          "type": "tuple"
        },
        {
          "internalType": "uint256",
          "name": "s",
          "type": "uint256"
        }
      ],
      "name": "scalar_mul",
      "outputs": [
        {
          "components": [
            {
              "internalType": "uint256",
              "name": "X",
              "type": "uint256"
            },
            {
              "internalType": "uint256",
              "name": "Y",
              "type": "uint256"
            }
          ],
          "internalType": "struct Pairing.G1Point",
          "name": "r",
          "type": "tuple"
        }
      ],
      "stateMutability": "view",
      "type": "function"
    }
  ],
  "bytecode": {
    "object": "0x610c9661003a600b82828239805160001a60731461002d57634e487b7160e01b600052600060045260246000fd5b30600052607381538281f3fe730000000000000000000000000000000000000000301460806040526004361061006c5760003560e01c806318c77c95146100715780631de21b76146100a45780632f3ed539146100cf57806330332aea146100e45780636e1b6990146100f9578063a68007751461010c575b600080fd5b61008461007f366004610a9a565b61011f565b604080518251815260209283015192810192909252015b60405180910390f35b6040805180820182526000808252602091820152815180830190925260018252600290820152610084565b6100e26100dd3660046109b4565b610193565b005b6100ec61056d565b60405161009b9190610b21565b610084610107366004610ace565b61062d565b61008461011a366004610a78565b6106ce565b604080518082019091526000808252602082015261013b6107d0565b8351815260208085015181830152835160408301528301516060808301919091526000908360c08460066107d05a03fa90508061018b576040516309bde33960e01b815260040160405180910390fd5b505092915050565b80518251146101b5576040516309bde33960e01b815260040160405180910390fd5b815160006101c4826006610be3565b905060008167ffffffffffffffff8111156101ef57634e487b7160e01b600052604160045260246000fd5b604051908082528060200260200182016040528015610218578160200160208202803683370190505b50905060005b838110156105175785818151811061024657634e487b7160e01b600052603260045260246000fd5b602002602001015160000151828260066102609190610be3565b61026b906000610bcb565b8151811061028957634e487b7160e01b600052603260045260246000fd5b6020026020010181815250508581815181106102b557634e487b7160e01b600052603260045260246000fd5b602002602001015160200151828260066102cf9190610be3565b6102da906001610bcb565b815181106102f857634e487b7160e01b600052603260045260246000fd5b60200260200101818152505084818151811061032457634e487b7160e01b600052603260045260246000fd5b602090810291909101015151518261033d836006610be3565b610348906002610bcb565b8151811061036657634e487b7160e01b600052603260045260246000fd5b60200260200101818152505084818151811061039257634e487b7160e01b600052603260045260246000fd5b602090810291909101810151510151826103ad836006610be3565b6103b8906003610bcb565b815181106103d657634e487b7160e01b600052603260045260246000fd5b60200260200101818152505084818151811061040257634e487b7160e01b600052603260045260246000fd5b60200260200101516020015160006002811061042e57634e487b7160e01b600052603260045260246000fd5b60200201518261043f836006610be3565b61044a906004610bcb565b8151811061046857634e487b7160e01b600052603260045260246000fd5b60200260200101818152505084818151811061049457634e487b7160e01b600052603260045260246000fd5b6020026020010151602001516001600281106104c057634e487b7160e01b600052603260045260246000fd5b6020020151826104d1836006610be3565b6104dc906005610bcb565b815181106104fa57634e487b7160e01b600052603260045260246000fd5b60209081029190910101528061050f81610c19565b91505061021e565b506105206107ee565b6000602082602086026020860160086107d05a03fa905080158061054657508151600114155b15610564576040516309bde33960e01b815260040160405180910390fd5b50505050505050565b61057561080c565b50604080516080810182527f198e9393920d483a7260bfb731fb5d25f1aa493335a9e71297e485b7aef312c28183019081527f1800deef121f1e76426a00665e5c4479674322d4f75edadd46debd5cd992f6ed6060830152815281518083019092527f090689d0585ff075ec9e99ad690c3395bc4b313370b38ef355acdadcd122975b82527f12c85ea5db8c6deb4aab71808dcb408fe3d1e7690c43d37b4ce6cc0166fa7daa60208381019190915281019190915290565b60408051808201909152600080825260208201527f30644e72e131a029b85045b68181585d2833e84879b9709143e1f593f00000018210610681576040516309bde33960e01b815260040160405180910390fd5b610689610831565b835181526020808501519082015260408101839052600060608360808460076107d05a03fa90508061018b576040516309bde33960e01b815260040160405180910390fd5b604080518082019091526000808252602082015281511580156106f357506020820151155b15610711575050604080518082019091526000808252602082015290565b81517f30644e72e131a029b85045b68181585d97816a916871ca8d3c208c16d87cfd4711158061076557507f30644e72e131a029b85045b68181585d97816a916871ca8d3c208c16d87cfd47826020015110155b15610783576040516309bde33960e01b815260040160405180910390fd5b60405180604001604052808360000151815260200183602001517f30644e72e131a029b85045b68181585d97816a916871ca8d3c208c16d87cfd476107c89190610c02565b905292915050565b60405180608001604052806004906020820280368337509192915050565b60405180602001604052806001906020820280368337509192915050565b604051806040016040528061081f61084f565b815260200161082c61084f565b905290565b60405180606001604052806003906020820280368337509192915050565b60405180604001604052806002906020820280368337509192915050565b600082601f83011261087d578081fd5b8135602061089261088d83610ba7565b610b76565b80838252828201915082860187848660071b89010111156108b1578586fd5b855b8581101561090357608080838b0312156108cb578788fd5b6108d3610b4d565b6108dd8b85610910565b81526108ec8b60408601610910565b8188015285529385019391909101906001016108b3565b5090979650505050505050565b600082601f830112610920578081fd5b6040516040810181811067ffffffffffffffff8211171561094357610943610c4a565b8060405250808385604086011115610959578384fd5b835b600281101561097a57813583526020928301929091019060010161095b565b509195945050505050565b600060408284031215610996578081fd5b61099e610b4d565b9050813581526020820135602082015292915050565b60008060408084860312156109c7578283fd5b833567ffffffffffffffff808211156109de578485fd5b818601915086601f8301126109f1578485fd5b81356020610a0161088d83610ba7565b8083825282820191508286018b848660061b8901011115610a2057898afd5b8996505b84871015610a4a57610a368c82610985565b835260019690960195918301918701610a24565b5097505087013593505080831115610a60578384fd5b5050610a6e8582860161086d565b9150509250929050565b600060408284031215610a89578081fd5b610a938383610985565b9392505050565b60008060808385031215610aac578182fd5b610ab68484610985565b9150610ac58460408501610985565b90509250929050565b60008060608385031215610ae0578182fd5b610aea8484610985565b946040939093013593505050565b8060005b6002811015610b1b578151845260209384019390910190600101610afc565b50505050565b6000608082019050610b34828451610af8565b6020830151610b466040840182610af8565b5092915050565b6040805190810167ffffffffffffffff81118282101715610b7057610b70610c4a565b60405290565b604051601f8201601f1916810167ffffffffffffffff81118282101715610b9f57610b9f610c4a565b604052919050565b600067ffffffffffffffff821115610bc157610bc1610c4a565b5060051b60200190565b60008219821115610bde57610bde610c34565b500190565b6000816000190483118215151615610bfd57610bfd610c34565b500290565b600082821015610c1457610c14610c34565b500390565b6000600019821415610c2d57610c2d610c34565b5060010190565b634e487b7160e01b600052601160045260246000fd5b634e487b7160e01b600052604160045260246000fdfea2646970667358221220c66314a52cb4f055650263e572806b80a4d4964d3e6328345125ce3e2df3aaa164736f6c63430008040033",
    "linkReferences": {}
  },
  "methodIdentifiers": {
    "P1()": "1de21b76",
    "P2()": "30332aea",
    "addition(Pairing.G1Point,Pairing.G1Point)": "18c77c95",
    "negate(Pairing.G1Point)": "a6800775",
    "pairingCheck(Pairing.G1Point[],Pairing.G2Point[])": "2f3ed539",
    "scalar_mul(Pairing.G1Point,uint256)": "6e1b6990"
  },
  "id": 20
}