{
  "abi": [
    {
      "inputs": [],
      "stateMutability": "nonpayable",
      "type": "constructor"
    },
    {
      "inputs": [],
      "name": "AlreadyAMember",
      "type": "error"
    },
    {
      "inputs": [],
      "name": "CantLeave",
      "type": "error"
    },
    {
      "inputs": [],
      "name": "InvalidDeposit",
      "type": "error"
    },
    {
      "inputs": [],
      "name": "NotAHolder",
      "type": "error"
    },
    {
      "inputs": [],
      "name": "NotAMember",
      "type": "error"
    },
    {
      "anonymous": false,
      "inputs": [
        {
          "indexed": false,
          "internalType": "address",
          "name": "tokenAddress",
          "type": "address"
        },
        {
          "indexed": false,
          "internalType": "address",
          "name": "poster",
          "type": "address"
        },
        {
          "indexed": false,
          "internalType": "string",
          "name": "message",
          "type": "string"
        }
      ],
      "name": "MessagePosted",
      "type": "event"
    },
    {
      "inputs": [],
      "name": "DEPOSIT",
      "outputs": [
        {
          "internalType": "uint256",
          "name": "",
          "type": "uint256"
        }
      ],
      "stateMutability": "view",
      "type": "function"
    },
    {
      "inputs": [
        {
          "internalType": "address",
          "name": "tokenAddress",
          "type": "address"
        }
      ],
      "name": "getGroupId",
      "outputs": [
        {
          "internalType": "uint256",
          "name": "",
          "type": "uint256"
        }
      ],
      "stateMutability": "pure",
      "type": "function"
    },
    {
      "inputs": [
        {
          "internalType": "address",
          "name": "",
          "type": "address"
        }
      ],
      "name": "groups",
      "outputs": [
        {
          "internalType": "bool",
          "name": "",
          "type": "bool"
        }
      ],
      "stateMutability": "view",
      "type": "function"
    },
    {
      "inputs": [
        {
          "internalType": "address",
          "name": "",
          "type": "address"
        },
        {
          "internalType": "address",
          "name": "",
          "type": "address"
        }
      ],
      "name": "identities",
      "outputs": [
        {
          "internalType": "uint256",
          "name": "",
          "type": "uint256"
        }
      ],
      "stateMutability": "view",
      "type": "function"
    },
    {
      "inputs": [
        {
          "internalType": "address",
          "name": "tokenAddress",
          "type": "address"
        },
        {
          "internalType": "uint256",
          "name": "identityCommitment",
          "type": "uint256"
        }
      ],
      "name": "joinGroup",
      "outputs": [],
      "stateMutability": "payable",
      "type": "function"
    },
    {
      "inputs": [
        {
          "internalType": "address",
          "name": "tokenAddress",
          "type": "address"
        },
        {
          "internalType": "address",
          "name": "memberAddress",
          "type": "address"
        },
        {
          "internalType": "uint256[]",
          "name": "proofSiblings",
          "type": "uint256[]"
        },
        {
          "internalType": "uint8[]",
          "name": "proofPathIndices",
          "type": "uint8[]"
        }
      ],
      "name": "leaveGroup",
      "outputs": [],
      "stateMutability": "nonpayable",
      "type": "function"
    },
    {
      "inputs": [
        {
          "internalType": "address",
          "name": "tokenAddress",
          "type": "address"
        },
        {
          "internalType": "string",
          "name": "message",
          "type": "string"
        },
        {
          "internalType": "uint256",
          "name": "merkleTreeRoot",
          "type": "uint256"
        },
        {
          "internalType": "uint256",
          "name": "nullifierHash",
          "type": "uint256"
        },
        {
          "internalType": "uint256[8]",
          "name": "proof",
          "type": "uint256[8]"
        }
      ],
      "name": "postMessage",
      "outputs": [],
      "stateMutability": "nonpayable",
      "type": "function"
    },
    {
      "inputs": [],
      "name": "semaphore",
      "outputs": [
        {
          "internalType": "contract ISemaphore",
          "name": "",
          "type": "address"
        }
      ],
      "stateMutability": "view",
      "type": "function"
    }
  ],
  "bytecode": {
    "object": "0x608060405234801561001057600080fd5b50600080546001600160a01b031916733889927f0b5eb1a02c6e2c20b39a1bd4ead76131179055610b29806100466000396000f3fe60806040526004361061007b5760003560e01c80637b5d25341161004e5780637b5d25341461011a57806387ba8d2c14610152578063935934ca14610198578063d81c8e52146101bf57600080fd5b806308d4407d14610080578063338a0737146100a25780635549f451146100c257806363d5e44d146100d5575b600080fd5b34801561008c57600080fd5b506100a061009b366004610857565b6101da565b005b3480156100ae57600080fd5b506100a06100bd3660046107c9565b6102cd565b6100a06100d0366004610938565b6104be565b3480156100e157600080fd5b506101056100f0366004610776565b60026020526000908152604090205460ff1681565b60405190151581526020015b60405180910390f35b34801561012657600080fd5b5060005461013a906001600160a01b031681565b6040516001600160a01b039091168152602001610111565b34801561015e57600080fd5b5061018a61016d366004610797565b600160209081526000928352604080842090915290825290205481565b604051908152602001610111565b3480156101a457600080fd5b5061018a6101b3366004610776565b6001600160a01b031690565b3480156101cb57600080fd5b5061018a662386f26fc1000081565b6000846040516020016101ed9190610979565b60408051601f1981840301815291905280516020909101206000549091506001600160a01b0316633bc778e3610229886001600160a01b031690565b8684876001600160a01b038c16886040518763ffffffff1660e01b815260040161025896959493929190610a71565b600060405180830381600087803b15801561027257600080fd5b505af1158015610286573d6000803e3d6000fd5b505050507f611bd1772e69faa0518c445718179002fa0fdda3dd81e3303cc59f1454c6e5568633876040516102bd93929190610995565b60405180910390a1505050505050565b6001600160a01b03808716600090815260016020908152604080832093891683529290522054610310576040516305031d1160e31b815260040160405180910390fd5b6040516370a0823160e01b81526001600160a01b0386811660048301528716906370a082319060240160206040518083038186803b15801561035157600080fd5b505afa158015610365573d6000803e3d6000fd5b505050506040513d601f19601f820116820180604052508101906103899190610961565b158061039d57506001600160a01b03851633145b1561049d576000546001600160a01b03166343989f856103c3886001600160a01b031690565b6001600160a01b03808a166000908152600160209081526040808320938c1683529290528190205490516001600160e01b031960e085901b16815261041492919089908990899089906004016109e2565b600060405180830381600087803b15801561042e57600080fd5b505af1158015610442573d6000803e3d6000fd5b5050506001600160a01b038716600090815260016020908152604080832033808552925280832083905551909250662386f26fc100009082818181858883f19350505050158015610497573d6000803e3d6000fd5b506104b6565b60405163041d713360e21b815260040160405180910390fd5b505050505050565b662386f26fc1000034146104e557604051635972996f60e11b815260040160405180910390fd5b6040516370a0823160e01b81523360048201526001600160a01b038316906370a082319060240160206040518083038186803b15801561052457600080fd5b505afa158015610538573d6000803e3d6000fd5b505050506040513d601f19601f8201168201806040525081019061055c9190610961565b6105795760405163cf2ef14560e01b815260040160405180910390fd5b6001600160a01b0382166000908152600160209081526040808320338452909152902054156105bb5760405163a929afd160e01b815260040160405180910390fd5b6001600160a01b03821660008181526002602052604090205460ff1661066a57600054604051639c11214160e01b815260048101839052601460248201523060448201526001600160a01b0390911690639c11214190606401600060405180830381600087803b15801561062e57600080fd5b505af1158015610642573d6000803e3d6000fd5b5050506001600160a01b0384166000908152600260205260409020805460ff19166001179055505b600054604051631783efc360e01b815260048101839052602481018490526001600160a01b0390911690631783efc390604401600060405180830381600087803b1580156106b757600080fd5b505af11580156106cb573d6000803e3d6000fd5b505050506001600160a01b0392909216600090815260016020908152604080832033845290915290205550565b80356001600160a01b038116811461070f57600080fd5b919050565b80610100810183101561072657600080fd5b92915050565b60008083601f84011261073d578182fd5b50813567ffffffffffffffff811115610754578182fd5b6020830191508360208260051b850101111561076f57600080fd5b9250929050565b600060208284031215610787578081fd5b610790826106f8565b9392505050565b600080604083850312156107a9578081fd5b6107b2836106f8565b91506107c0602084016106f8565b90509250929050565b600080600080600080608087890312156107e1578182fd5b6107ea876106f8565b95506107f8602088016106f8565b9450604087013567ffffffffffffffff80821115610814578384fd5b6108208a838b0161072c565b90965094506060890135915080821115610838578384fd5b5061084589828a0161072c565b979a9699509497509295939492505050565b6000806000806000610180868803121561086f578081fd5b610878866106f8565b9450602086013567ffffffffffffffff80821115610894578283fd5b818801915088601f8301126108a7578283fd5b8135818111156108b9576108b9610add565b604051601f8201601f19908116603f011681019083821181831017156108e1576108e1610add565b816040528281528b60208487010111156108f9578586fd5b826020860160208301379182016020018590525095505050604086013592506060860135915061092c8760808801610714565b90509295509295909350565b6000806040838503121561094a578182fd5b610953836106f8565b946020939093013593505050565b600060208284031215610972578081fd5b5051919050565b6000825161098b818460208701610aad565b9190910192915050565b600060018060a01b0380861683528085166020840152506060604083015282518060608401526109cc816080850160208701610aad565b601f01601f191691909101608001949350505050565b8681526000602087818401526080604084015285608084015260018060fb1b03861115610a0d578182fd5b8560051b808860a0860137830183810360a0908101606086015281018590528590839060c0015b86821015610a6257823560ff8116808214610a4d578687fd5b82525091830191600191909101908301610a34565b9b9a5050505050505050505050565b60006101a0820190508782528660208301528560408301528460608301528360808301526101008360a084013760008152979650505050505050565b60005b83811015610ac8578181015183820152602001610ab0565b83811115610ad7576000848401525b50505050565b634e487b7160e01b600052604160045260246000fdfea2646970667358221220e2186a4f24dd9d90fad6007dd88a11dc1663b38a57f766f43d463f513c93fe1364736f6c63430008040033",
    "linkReferences": {}
  },
  "methodIdentifiers": {
    "DEPOSIT()": "d81c8e52",
    "getGroupId(address)": "935934ca",
    "groups(address)": "63d5e44d",
    "identities(address,address)": "87ba8d2c",
    "joinGroup(address,uint256)": "5549f451",
    "leaveGroup(address,address,uint256[],uint8[])": "338a0737",
    "postMessage(address,string,uint256,uint256,uint256[8])": "08d4407d",
    "semaphore()": "7b5d2534"
  },
  "id": 28
}